:020000040800F2
:1000000000100020511F0008A11F0008A11F0008B8
:1000100000000000000000000000000000000000E0
:10002000000000000000000000000000A11F000808
:100030000000000000000000A11F0008D519000802
:10004000A11F000800000000A11F0008A11F000858
:10005000A11F0008A11F0008A11F0008A11F000880
:1000600000000000A11F0008A11F0008A11F000838
:10007000A11F0008A11F0008A11F00080000000028
:10008000A11F0008A11F000800000000A11F000818
:10009000A11F0008A11F0008A11F0008A11F000840
:1000A000A11F0008A11F0008A11F0008A11F000830
:1000B000A11F000800000000000000000000000078
:1000C00010B5064C2378002B07D1054B002B02D02E
:1000D000044800E000BF0123237010BD5804002035
:1000E000000000003039000808B5084B002B03D091
:1000F0000748084900E000BF07480368002B00D10B
:1001000008BD064B002BFBD09847F9E70000000024
:10011000303900085C040020540400200000000076
:1001200080B500AFBD4680BD80B500AFBD4680BD87
:1001300080B500AFBD4680BD80B500AFBD4680BD77
:1001400080B586B000AF786039600023FB60002383
:10015000BB6000233B6100237B61B1E17B6901222D
:100160009A40131CFB603B681B68FA681340BB6035
:10017000BA68FB689A4200D09FE13B685B68022B3B
:1001800003D03B685B68122B22D17B69DA087B685D
:1001900008329200D3583B617B69072213409B00D1
:1001A0001A1C0F239340DA433B6913403B613B68C1
:1001B0001B697A6907210A40920093403A69134308
:1001C0003B617B69DA087B68083292003969D1505B
:1001D0007B681B683B617B695B001A1C03239340AF
:1001E000DA433B6913403B613B685B680322134081
:1001F0007A69520093403A6913433B617B683A69DC
:100200001A603B685B68012B0BD03B685B68022B74
:1002100007D03B685B68112B03D03B685B68122BEF
:100220002FD17B689B683B617B695B001A1C0323B1
:100230009340DA433B6913403B613B68DB687A6972
:10024000520093403A6913433B617B683A699A6074
:100250007B685B683B617B6901229A40131CDA432F
:100260003B6913403B613B685B68102213401A09ED
:100270007B699A40131C3A6913433B617B683A6976
:100280005A607B68DB683B617B695B001A1C032357
:100290009340DA433B6913403B613B689B687A6952
:1002A000520093403A6913433B617B683A69DA60D4
:1002B0003B685A6880235B05134000D195E0844B6E
:1002C000834A926901210A439A61824A7B699B08A9
:1002D00002339B009B583B617B69032213409B00C8
:1002E0001A1C0F239340DA433B6913403B617A6841
:1002F0009023DB059A4213D07B68774A93420DD056
:100300007B68764A934207D07B68754A934201D155
:10031000032306E0052304E0022302E0012300E0BA
:1003200000237A6903210A40920093403A691343FB
:100330003B6168497B699B0802339B003A695A50CC
:10034000684B1B683B61BB68DA433B6913403B6108
:100350003B685A6880235B02134003D03A69BB684C
:1003600013433B615F4B3A691A605E4B5B683B61CC
:10037000BB68DA433B6913403B613B685A688023A2
:100380009B02134003D03A69BB6813433B61554B52
:100390003A695A60534B9B683B61BB68DA433B69DF
:1003A00013403B613B685A6880235B03134003D0D2
:1003B0003A69BB6813433B614A4B3A699A60494BBF
:1003C000DB683B61BB68DA433B6913403B613B68D8
:1003D0005A6880239B03134003D03A69BB681343D8
:1003E0003B61404B3A69DA6067E03A4A7B699B08B7
:1003F00002339B009B583B617B69032213409B00A7
:100400001A1C0F2393401A1C3B6913403B617A6806
:100410009023DB059A4213D07B682F4A93420DD07C
:100420007B682E4A934207D07B682D4A934201D1C4
:10043000032306E0052304E0022302E0012300E099
:1004400000237A6903210A40920093401A1E3B69F7
:100450009A4232D17B69032213409B001A1C0F235E
:1004600093403B611B487B699B081A497A69920853
:100470000232920052583969C9430A4002339B0044
:100480001A50184B174A1268B968C9430A401A60D3
:10049000144B144A5268B968C9430A405A60114B58
:1004A000104A9268B968C9430A409A600D4B0D4AD8
:1004B000D268B968C9430A40DA607B6901337B615D
:1004C0007B690F2B00D849E6BD4606B080BDC0460B
:1004D00000100240000001400004004800080048ED
:1004E000000C00480004014080B586B000AF786081
:1004F000396000233B610023FB600023BB600023C5
:100500007B61B8E07B6901229A40131C3B613B6828
:100510003A691340FB60FA683B699A4200D0A7E051
:100520007B681B687A695200111C03228A40D243FF
:100530001A407B681A607B69DA087B69D9087B6896
:1005400008318900CB587969072001408900081CCF
:100550000F218140C94319407B6808329200D15075
:100560007B689B687A695200111C03228A40D2433F
:100570001A407B689A607B685B687A6901219140C8
:100580000A1CD2431A407B685A607B68DB687A6930
:100590005200111C03228A40D2431A407B68DA6061
:1005A000384A7B699B0802339B009B58BB607B6980
:1005B000032213409B001A1C0F2393401A1CBB6894
:1005C0001340BB607A689023DB059A4213D07B68A6
:1005D0002D4A93420DD07B682C4A934207D07B680A
:1005E0002B4A934201D1032306E0052304E00223B2
:1005F00002E0012300E000237A6903210A4092000F
:1006000093401A1EBB689A4232D17B690322134081
:100610009B001A1C0F239340BB601A487B699B0800
:1006200018497A699208023292005258B968C9434F
:100630000A4002339B001A50164B164A1268F9689A
:10064000C9430A401A60134B124A5268F968C943F9
:100650000A405A600F4B0F4A9268F968C9430A4032
:100660009A600C4B0B4AD268F968C9430A40DA60B9
:100670007B6901337B617B690F2B00D842E7BD4664
:1006800006B080BD0000014000040048000800489A
:10069000000C00480004014080B584B000AF7860D1
:1006A0000A1CBB1C1A807B681B69BA1C1288134089
:1006B00004D00F23FB1801221A7003E00F23FB184C
:1006C00000221A700F23FB181B78181CBD4604B0BB
:1006D00080BDC04680B582B000AF7860081C111C98
:1006E000BB1C021C1A807B1C0A1C1A707B1C1B780A
:1006F000002B04D0BB1C1A887B689A6104E0BB1CE9
:100700001B881A047B689A61BD4602B080BDC04652
:1007100080B582B000AF78600A1CBB1C1A807B6871
:100720005A69BB1C1B885A407B685A61BD4602B09F
:1007300080BDC04680B584B000AF78600A1CBB1C89
:100740001A8080235B02FB60BB1C1A88FB68134382
:10075000FB60FA687B68DA61BB1C1A887B68DA6127
:10076000FA687B68DA617B68DB69FB607B68DA6961
:1007700080235B02134001D0002300E00123181CFA
:10078000BD4604B080BDC04680B582B000AF021C3B
:10079000BB1D1A80084B5B69BA1D1288134008D034
:1007A000054BBA1D12885A61BB1D1B88181C00F02E
:1007B00005F8BD4602B080BD0004014080B582B09E
:1007C00000AF021CBB1D1A80BD4602B080BDC046F2
:1007D00080B584B000AF78600023FB607B681B6845
:1007E0000122134000D16AE0C04B5B680C22134029
:1007F000042B0BD0BD4B5B680C221340082B12D18D
:10080000BA4B5A6880235B0213400CD0B74B1A686E
:1008100080239B02134005D07B685B68012B01D0CD
:1008200001235DE24BE0B24B00221A7001F020FC84
:10083000031CFB6009E001F01BFC021CFB68D31ADF
:10084000AC4A934201D903234AE2A84B1A68802399
:100850009B021340EFD1A64A7B685B68DBB2137042
:100860007B685B68002B15D001F002FC031CFB6069
:1008700009E001F0FDFB021CFB68D31A9D4A93427C
:1008800001D903232CE2994B1A6880239B02134061
:10089000EFD014E001F0ECFB031CFB6009E001F079
:1008A000E7FB021CFB68D31A924A934201D9032347
:1008B00016E28E4B1A6880239B021340EFD17B68AF
:1008C0001B680222134000D169E0884B5B680C2250
:1008D00013400BD0854B5B680C221340082B1CD1B6
:1008E000824B5A6880235B02134016D17F4B1B68F2
:1008F0000222134005D07B68DB68012B01D0012365
:10090000EEE17A4A794B1B68F8218B43191C7B680E
:100910001B69DB000B43136041E07B68DB68002B45
:1009200024D0724B714A126801210A431A6001F007
:100930009FFB031CFB6008E001F09AFB021CFB68B4
:10094000D31A642B01D90323CAE1684B1B68022226
:100950001340F1D0654A654B1B68F8218B43191C85
:100960007B681B69DB000B43136018E05F4B5F4A39
:10097000126801218A431A6001F07AFB031CFB60B4
:1009800008E001F075FB021CFB68D31A642B01D947
:100990000323A5E1554B1B6802221340F1D17B686C
:1009A0001B680822134036D07B681B6A002B19D0C5
:1009B0004E4B4E4A526A01210A435A6201F058FBDB
:1009C000031CFB6008E001F053FB021CFB68D31A18
:1009D000642B01D9032383E1444B5B6A0222134059
:1009E000F1D018E0414B414A526A01218A435A62D0
:1009F00001F03EFB031CFB6008E001F039FB021C28
:100A0000FB68D31A642B01D9032369E1374B5B6A76
:100A100002221340F1D17B681B680422134000D1ED
:100A20007BE0324B314AD269802149050A43DA61C1
:100A3000314B314A1268802149000A431A6001F0A3
:100A400017FB031CFB6008E001F012FB021CFB68B3
:100A5000D31A642B01D9032342E1274B1A68802360
:100A60005B001340F0D0214B204A126A05218A43D3
:100A70001A6201F0FDFA031CFB6009E001F0F8FACC
:100A8000021CFB68D31A1B4A934201D9032327E1B6
:100A9000164B1B6A02221340F0D1144A134B1B6AF7
:100AA00005218B43191C7B689B680B4313627B6891
:100AB0009B68012B14D101F0DBFA031CFB6009E0F9
:100AC00001F0D6FA021CFB68D31A0A4A934201D9F4
:100AD000032305E1054B1B6A02221340F0D01CE002
:100AE00001F0C6FA031CFB6012E0C0460010024091
:100AF00002100240881300000070004001F0B8FAB4
:100B0000021CFB68D31A784A934201D90323E7E019
:100B1000764B1B6A02221340F0D17B681B681022BF
:100B2000134063D07B685B69012B2AD16F4B6F4AFE
:100B3000526B04210A435A636C4B6C4A526B01217D
:100B40000A435A6301F094FA031CFB6008E001F0C9
:100B50008FFA021CFB68D31A642B01D90323BFE070
:100B6000624B5B6B02221340F1D0604A5F4B5B6BC0
:100B7000F8218B43191C7B689B69DB000B43536393
:100B800034E07B685B69053311D1584B574A526B8F
:100B900004218A435A63554A544B5B6BF8218B43BB
:100BA000191C7B689B69DB000B4353631EE04F4BB2
:100BB0004E4A526B04210A435A634C4B4B4A526BC8
:100BC00001218A435A6301F053FA031CFB6008E0D9
:100BD00001F04EFA021CFB68D31A642B01D90323DF
:100BE0007EE0424B5B6B02221340F1D17B685B6A73
:100BF000002B00D173E03D4B5B680C221340082BA7
:100C000000D16AE07B685B6A022B4BD1374B374AD5
:100C1000126837490A401A6001F02AFA031CFB6087
:100C200008E001F025FA021CFB68D31A642B01D9F5
:100C3000032355E02D4B1A6880239B041340F0D109
:100C40002A4A2A4BDB6A0F218B43191C7B68DB6A1B
:100C50000B43D362254A254B5B68264919407B68C4
:100C6000186B7B689B6A03430B4353601F4B1F4AFF
:100C70001268802149040A431A6001F0F9F9031C43
:100C8000FB6008E001F0F4F9021CFB68D31A642B46
:100C900001D9032324E0154B1A6880239B041340D9
:100CA000F0D01CE0114B114A126811490A401A6039
:100CB00001F0DEF9031CFB6008E001F0D9F9021C29
:100CC000FB68D31A642B01D9032309E0074B1A6888
:100CD00080239B041340F0D101E0012300E00023B6
:100CE000181CBD4604B080BD8813000000100240EF
:100CF000FFFFFFFEFFFFC2FF80B584B000AF78604A
:100D000039600023FB609F4B1B6801221A403B683F
:100D10009A4200D390E09B4B9A4A126801218A4381
:100D2000111C3A680A431A60964B1B6801221A404C
:100D30003B689A4201D0012320E17B681B680222B4
:100D4000134009D0904A904B5B68F0218B43191CEB
:100D50007B689B680B4353607B681B6801221340D0
:100D600000D1F9E07B685B68012B07D1864B1A68DC
:100D700080239B02134014D10123FFE07B685B6852
:100D8000022B07D1804B1A6880239B04134008D1A3
:100D90000123F3E07C4B1B680222134001D10123A5
:100DA000ECE0794A784B5B6803218B43191C7B6824
:100DB0005B680B43536001F05BF9031CFB607B68CD
:100DC0005B68012B11D109E001F052F9021CFB68AC
:100DD000D31A6E4A934201D90323CFE06A4B5B6872
:100DE0000C221340042BEFD1B6E07B685B68022B2A
:100DF00011D109E001F03CF9021CFB68D31A634AE7
:100E0000934201D90323B9E05F4B5B680C22134086
:100E1000082BEFD1A0E009E001F02AF9021CFB68E1
:100E2000D31A5A4A934201D90323A7E0564B5B6871
:100E30000C221340F0D18FE07B681B680222134024
:100E400009D0514A504B5B68F0218B43191C7B68D9
:100E50009B680B4353607B681B680122134000D1E1
:100E600068E07B685B68012B07D1474B1A688023D9
:100E70009B02134014D1012380E07B685B68022B46
:100E800007D1414B1A6880239B04134008D10123EA
:100E900074E03D4B1B680222134001D101236DE039
:100EA000394A394B5B6803218B43191C7B685B68AB
:100EB0000B43536001F0DCF8031CFB607B685B684C
:100EC000012B11D109E001F0D3F8021CFB68D31A01
:100ED0002E4A934201D9032350E02B4B5B680C222E
:100EE0001340042BEFD125E07B685B68022B11D106
:100EF00009E001F0BDF8021CFB68D31A234A9342B3
:100F000001D903233AE0204B5B680C221340082BE5
:100F1000EFD10FE009E001F0ABF8021CFB68D31A37
:100F20001A4A934201D9032328E0174B5B680C222D
:100F30001340F0D1134B134A126801218A43111C4C
:100F40003A680A431A600F4B1B6801221A403B683B
:100F50009A4201D0012311E07B681B6804221340F0
:100F600008D0094A084B5B68094919407B68DB686F
:100F70000B435360032001F051F80023181CBD46B9
:100F800004B080BD00200240001002408813000021
:100F9000FFF8FFFF80B586B000AF0023FB600023A1
:100FA000BB6000237B6000237B6100233B611D4B02
:100FB0005B68FB60FB680C221340042B02D0082BFB
:100FC00003D027E0184B3B6127E0FA68F0239B032E
:100FD00013409B0C154AD35C7B60124BDB6A0F22DB
:100FE0001340134AD35CBB60FA6880235B02134052
:100FF00009D00D48B96802F011FB031C1A1C7B686C
:1010000053437B6103E07B680A4A53437B617B69FE
:101010003B6102E0044B3B61C0463B69181CBD4686
:1010200006B080BD0010024000127A00D0380008DF
:10103000E038000800093D0080B584B000AF78605A
:101040000023FB600023BB607B681A6880235B027F
:10105000134062D0424B424AD269802149050A437B
:10106000DA61404B3F4A1268802149000A431A6006
:1010700000F0FEFF031CFB6008E000F0F9FF021C1B
:10108000FB68D31A642B01D9032365E0354B1A683A
:1010900080235B001340F0D0314B1A6A7B685B6899
:1010A0005A40C0239B00134014D02D4B1B6A2E4A7C
:1010B0001340BB602A4B2A4A126A802149020A4324
:1010C0001A62274B264A126A28490A401A62244BA0
:1010D000BA681A627B685A6880235B009A4213D10F
:1010E00000F0C6FF031CFB6009E000F0C1FF021C1A
:1010F000FB68D31A1E4A934201D903232CE0184BF4
:101100001B6A02221340F0D0154A154B1B6A164980
:1011100019407B685B680B4313627B681B68012284
:10112000134009D00E4A0E4B1B6B03218B43191C35
:101130007B689B680B4313637B681B68202213400A
:1011400009D0074A064B1B6B10218B43191C7B6887
:10115000DB680B4313630023181CBD4604B080BD3D
:101160000010024000700040FFFCFFFFFFFFFEFF89
:101170008813000080B582B000AF78607B680C4AAD
:101180001A600C4B1A6AC0239B001A407B685A6095
:10119000084B1B6B03221A407B689A60054B1B6B44
:1011A00010221A407B68DA60BD4602B080BDC0469E
:1011B000210001000010024080B500AF1A4B1A4A0E
:1011C000126801210A431A60174B174A52681749DF
:1011D0000A405A60144B144A126815490A401A60B2
:1011E000114B114A126813490A401A600E4B0E4AFD
:1011F000526811490A405A600B4B0B4AD26A0F21C0
:101200008A43DA62084B084A126B0C490A401A6397
:10121000054B054A526B01218A435A63024B002257
:101220009A60BD4680BDC046001002400CB8FF0861
:10123000FFFFF6FEFFFFFBFFFFFFC0FF2CFEFFFFDF
:1012400080B584B000AF0023FB600023BB600023A7
:101250007B6000233B602B4B5B680C221340FB60E0
:10126000FB68042B07D0082B09D0002B33D1264B69
:10127000264A1A6033E0244B244A1A602FE0214B9F
:101280005A68F0239B031340BB601E4B5A688023AF
:101290005B0213407B60BB689B0C0233BB60194B45
:1012A000DB6A0F22134001333B607A6880235B02C4
:1012B0009A420AD11548396802F0B0F9031C1A1C89
:1012C000BB685A43104B1A6009E0BB68104A5A4386
:1012D0000D4B1A6003E00C4B0C4A1A60C046094BD8
:1012E0005B68F02213401B090A4AD35CDBB2FB6047
:1012F000054B1A68FB68DA40034B1A60BD4604B020
:1013000080BDC046001002400000002000127A009C
:1013100000093D000400002080B500AF124B124AC6
:10132000126881210A431A600F4B0F4A52680F4915
:101330000A405A600C4B0C4A12680D490A401A6068
:10134000094B094A12680B490A401A60064B0022F1
:101350005A60054B0022DA62034B00221A63024BEB
:1013600000229A60BD4680BD001002400CF8FFF0DC
:10137000FFFFF6FEFFFFFBFF80B582B000AF786095
:101380000123181CBD4602B080BDC04680B582B0A6
:1013900000AF786039600123181CBD4602B080BDE3
:1013A00080B58AB000AFF860B9607A60174B174A11
:1013B0005269802189020A435A611423FB18802252
:1013C00052001A601423FB1802225A601423FB18DF
:1013D0000322DA601423FB1800229A601423FB18FE
:1013E00000221A619023DA051423FB18101C191C23
:1013F000FEF7A6FE054B054A526805491140BA683A
:101400000A435A60BD460AB080BDC0460010024083
:10141000FFFFFFF080B500AF044B044A1268802143
:1014200009030A431A60BD4680BDC0460010024051
:1014300080B500AF034B034A126803490A401A60A3
:10144000BD4680BD00100240FFFFF7FF80B500AF32
:101450000123181CBD4680BD80B500AFFFF79AFD83
:10146000011C084B5B68F02213401B09064AD35C41
:101470000A1CDA40054B1A60044B1B68181CBD4659
:1014800080BDC04600100240F03800080000002077
:1014900080B500AFFFF7E0FF011C064B5A68E02360
:1014A000DB0013401B0A044AD35CD9400B1C181CF8
:1014B000BD4680BD00100240F038000880B582B003
:1014C00000AF78607B680F221A60424B1A68802355
:1014D000DB02134003D07B6805225A600CE03D4BD1
:1014E0001A6880235B02134003D07B6801225A6094
:1014F00002E07B6800225A60364B1B6801221340D1
:1015000003D07B680122DA6002E07B680022DA60A7
:10151000304B1B68F8221340DA087B681A612D4BA8
:101520001B6A0422134003D07B6805229A600BE0FB
:10153000284B1B6A0122134003D07B6801229A606A
:1015400002E07B6800229A60224B5B6A0122134012
:1015500003D07B6801221A6202E07B6800221A62D3
:101560001C4B1A6880235B04134003D07B68022263
:101570005A6202E07B6801225A62164B5A68802345
:101580005B021A407B689A62124B5A68F0239B03F5
:101590001A407B681A630F4BDB6A0F221A407B6884
:1015A000DA620C4B5B6B0122134003D07B68012293
:1015B0005A6102E07B6800225A61064B5B6BF8229D
:1015C0001340DA087B689A617B680022DA61BD46C5
:1015D00002B080BD0010024080B582B000AF7860DC
:1015E00039607B6807221A600D4B5B6803221A4042
:1015F0007B685A600A4B5B68F0221A407B689A60ED
:10160000074B5A68E023DB001A407B68DA60054B21
:101610001B6801221A403B681A60BD4602B080BDBB
:10162000001002400020024080B500AF054B9B68CF
:101630008022134004D000F009F8034B80221A7076
:10164000BD4680BD001002400A10024080B500AFC8
:10165000BD4680BD90B595B000AFFFF7DBFED74B20
:10166000D64A5269802189020A435A61D34BD34A30
:1016700052698021C9020A435A613023FB18602253
:101680001A603023FB1801225A603023FB18002215
:101690009A603023FB180022DA609023DA053023A9
:1016A000FB18101C191CFEF74BFD3023FB181E22E3
:1016B0001A603023FB1801225A603023FB180022E5
:1016C0009A603023FB180022DA609023DA05302379
:1016D000FB18101C191CFEF733FD3023FB18FE22EB
:1016E00092001A603023FB1801225A603023FB1845
:1016F00000229A603023FB180022DA60B04A3023BF
:10170000FB18101C191CFEF71BFD3023FB18C02210
:1017100012011A603023FB1800225A603023FB1894
:1017200001229A603023FB180022DA60A44A302399
:10173000FB18101C191CFEF703FDA04B9F4AD26931
:10174000802149050A43DA6100F02EFD9B4B9B4A3C
:10175000126A05218A4301210A431A62974B974A6C
:10176000126A98490A40802149000A431A62934B41
:10177000924A126A802109020A431A621823FB184E
:1017800000221A601823FB187F225A601823FB18C6
:10179000FF229A608C4B8D4A1A608B4B1822BA1824
:1017A000043313CA13C313CA13C3874B181C00F0A6
:1017B000B9FD3B1D00221A703B1D00225A703B1DD3
:1017C00028229A70804A3B1D101C191C002200F030
:1017D000ABFE7F4B181C00F045FB9023DB05181C6B
:1017E00004210122FEF776FFFA23DB00FB64FA23D3
:1017F0005B00BB6400237B64734A3B1D101C191CF7
:10180000012200F055FF704A3B1C101C191C0122DC
:1018100001F05AF83B1D1B787B647B6C232B10DD99
:101820003B1D00221A70684A3B1D101C191C012226
:1018300000F07AFE644A3B1C101C191C012201F0C6
:1018400043F87B6C212B02DC7B6C062B06DCFA2335
:101850005B00FB649623DB00BB6405E0FA23DB003E
:10186000FB64FA235B00BB643B1D5B781A1C0F23EF
:1018700013407B647B6C181C01F0A2FC9023DB05F9
:10188000181C02210122FEF725FFFB6C181C01F039
:10189000B3FE01F061FC9023DB05181C022100223D
:1018A000FEF718FFBB6C181C01F0A6FE3B1D5B7811
:1018B0001B09DBB27B647B6C181C01F081FC90235C
:1018C000DB05181C04210122FEF704FFFB6C181C29
:1018D00001F092FE01F040FC9023DB05181C04216E
:1018E0000022FEF7F7FEBB6C181C01F085FE3B1DC5
:1018F0001B781A1C0F2313407B647B6C181C01F0AF
:101900005FFC9023DB05181C08210122FEF7E2FE94
:10191000FB6C181C01F070FE01F01EFC9023DB052F
:10192000181C08210022FEF7D5FEBB6C181C01F024
:1019300063FE3B1D1B781B09DBB27B647B6C181CB0
:1019400001F03EFC9023DB05181C10210122FEF75C
:10195000C1FEFB6C181C01F04FFE01F0FDFB902353
:10196000DB05181C10210022FEF7B4FEBB6C181C0E
:1019700001F042FE3B1D9B781A1C012313400ED040
:101980009023DB05181C40210022FEF7A3FE9023C4
:10199000DB05181C20210022FEF79CFE0DE09023A1
:1019A000DB05181C40210122FEF794FE9023DB0585
:1019B000181C20210122FEF78DFE1DE700100240B9
:1019C00000040048FFFCFFFF9C04002000280040AA
:1019D000801A060080B500AF524A80231B01101CFC
:1019E000191CFEF759FE031E42D14F4B1A684F4B8C
:1019F0001B68D2184C4B1A604B4B1B680F2B3DDDFC
:101A0000494B00221A60494B1B685A1C474B1A600D
:101A10009023DB05181C4021FEF77AFE444A454B13
:101A2000101C191C002200F043FE414A424B101CBE
:101A3000191C002200F048FF3E4B5B780133DAB2FC
:101A40003C4B5A703B4B5B783B2B02D9394B002205
:101A50005A70374A374B101C191C002200F064FDE5
:101A6000334A354B101C191C002200F079FE05E0AA
:101A70002D4B0F221A602D4B01221A60294A802318
:101A8000DB00101C191CFEF707FE031E42D12B4B76
:101A90001A682B4B1B68D218284B1A60274B1B68FF
:101AA0000F2B3DDD254B00221A60254B1B685A1C6D
:101AB000234B1A609023DB05181C4021FEF728FEFB
:101AC0001B4A1C4B101C191C002200F0F1FD184A87
:101AD000194B101C191C002200F0F6FE154B1B7848
:101AE0000133DAB2134B1A70124B1B78172B02D941
:101AF000104B00221A700E4A0E4B101C191C0022AB
:101B000000F012FD0A4A0C4B101C191C002200F0B8
:101B100027FE05E0094B0F221A60094B01221A60CB
:101B2000BD4680BD0004004874040020140000205D
:101B30009C040020840400209804002078040020E5
:101B40001800002080B582B000AF021CFB1D1A7087
:101B5000064BFA1D1278111C1F220A4001219140E8
:101B60000A1C1A60BD4602B080BDC04600E100E01C
:101B700080B582B000AF021CFB1D1A70074AFB1D26
:101B80001B78191C1F230B40012199400B1C191CA9
:101B90008023D150BD4602B080BDC04600E100E0C8
:101BA00080B582B000AF021CFB1D1A700A4A802368
:101BB0005B00D358FA1D1278111C1F220A40012124
:101BC00091400A1C134001D0012300E00023181C9F
:101BD000BD4602B080BDC04600E100E080B582B0E5
:101BE00000AF021CFB1D1A70074AFB1D1B78191C55
:101BF0001F230B40012199400B1C191C80235B0003
:101C0000D150BD4602B080BD00E100E080B582B099
:101C100000AF021CFB1D1A70074AFB1D1B78191C24
:101C20001F230B40012199400B1C191CC0235B0092
:101C3000D150BD4602B080BD00E100E0B0B582B039
:101C400000AF021C3960FB1D1A70FB1D1B787F2B37
:101C50002FD92D4CFB1D1B781A1C0F231340083B5A
:101C60009908294AFB1D1B78181C0F230340083BC9
:101C70009B0806339B00D3185B68FA1D1278101C72
:101C800003220240D200101CFF228240D2431A409D
:101C90003B689B01FF200340F81D0078051C0320D2
:101CA0002840C00083401A438B1D9B00E3185A60F4
:101CB00026E0164CFB1D1B785BB29B081349FA1DEE
:101CC000127852B29208C03292005258F91D097827
:101CD000081C03210140C900081CFF218140C943A1
:101CE00011403A689201FF200240F81D0078051C5F
:101CF00003202840C00082400A43C0339B001A5191
:101D0000BD4602B0B0BDC04600ED00E000E100E01D
:101D100080B582B000AF021CFB1D1A70FB1D1B7842
:101D20007F2B16D9164AFB1D1B78191C0F230B405D
:101D3000083B9B0806339B00D3185B68FA1D12789A
:101D4000111C03220A40D200D340FF2213409B09FA
:101D500011E00C4AFB1D1B785BB29B08C0339B0053
:101D60009B58FA1D1278111C03220A40D200D3405E
:101D7000FF2213409B09181CBD4602B080BDC0461F
:101D800000ED00E000E100E080B500AFBFF34F8F51
:101D9000024B034ADA60BFF34F8FFEE700ED00E02D
:101DA0000400FA0580B582B000AF78607B68013B23
:101DB0000C4A934201D9012310E00B4B7A68013A97
:101DC0005A6001235B42181C0321FFF737FF064BC3
:101DD00000229A60044B07221A600023181CBD469B
:101DE00002B080BDFFFFFF0010E000E080B584B0CE
:101DF00000AFB9607A600F23FB18021C1A700F2322
:101E0000FB1800229A56BB68101C191CFFF716FF1E
:101E1000BD4604B080BDC04680B582B000AF021C94
:101E2000FB1D1A70FB1D1B785BB2181CFFF78AFEA6
:101E3000BD4602B080BDC04680B582B000AF021C76
:101E4000FB1D1A70FB1D1B785BB2181CFFF790FE80
:101E5000BD4602B080BDC04680B500AFFFF794FF1D
:101E6000BD4680BD80B582B000AF78607B68181C2D
:101E7000FFF798FF031C181CBD4602B080BDC0468A
:101E800080B582B000AF021CFB1D1A70FB1D1B78D1
:101E90005BB2181CFFF73CFF031C181CBD4602B0C8
:101EA00080BDC04680B582B000AF021CFB1D1A7019
:101EB000FB1D1B785BB2181CFFF790FEBD4602B0FD
:101EC00080BDC04680B582B000AF021CFB1D1A70F9
:101ED000FB1D1B785BB2181CFFF762FE031C181C6D
:101EE000BD4602B080BDC04680B582B000AF021CC6
:101EF000FB1D1A70FB1D1B785BB2181CFFF786FEDA
:101F0000BD4602B080BDC04680B582B000AF7860EB
:101F10007B68042B06D1084B074A126804210A4348
:101F20001A6005E0044B044A126804218A431A60CF
:101F3000BD4602B080BDC04610E000E080B500AFF5
:101F400000F002F8BD4680BD80B500AFBD4680BD43
:101F50000D488546002103E00C4B5B58435004318B
:101F60000B480C4B42189A42F6D30B4A02E000236E
:101F700013600432094B9A42F9D3FFF71DF901F0BF
:101F8000DFFBFFF767FBFEE7001000203039000899
:101F9000000000205804002058040020C404002041
:101FA000FEE7000080B500AF074B074A126810211A
:101FB0000A431A60032000F031F8FEF7B1F800235D
:101FC000181CBD4680BDC0460020024080B500AF51
:101FD0000D4B012252421A610B4B00221A610A4B2F
:101FE00001225242DA60084B0022DA60064B0122DD
:101FF00052429A62044B00229A62FEF795F800233F
:10200000181CBD4680BDC0460010024080B500AF20
:10201000BD4680BD80B500AFBD4680BD80B582B0F5
:1020200000AF7860FFF718FA031C181CFA23990018
:1020300001F0F4FA031C181CFFF714FF01235A42A5
:102040007B68101C191C0022FFF7D0FE0023181C0F
:10205000BD4602B080BDC04680B500AF034B1B68D3
:102060005A1C024B1A60BD4680BDC0467C0400204D
:1020700080B500AF024B1B68181CBD4680BDC04632
:102080007C04002080B500AF034B034A1268022194
:102090008A431A60BD4680BD10E000E080B500AF05
:1020A000034B034A126802210A431A60BD4680BDF1
:1020B00010E000E080B584B000AF78600023FB60E2
:1020C000FFF7D6FF031CFB60C046FFF7D1FF021CE1
:1020D000FB68D21A7B689A42F7D3BD4604B080BD34
:1020E00080B500AF014B181CBD4680BD000001014A
:1020F00080B500AF024B1B681B0C181CBD4680BD91
:102100000058014080B500AF034B1B681B051B0D39
:10211000181CBD4680BDC0460058014080B500AFC8
:10212000034B034A526802210A435A60BD4680BDF0
:102130000058014080B500AF034B034A52680221AA
:102140008A435A60BD4680BD0058014080B500AF4B
:10215000034B034A526804210A435A60BD4680BDBE
:102160000058014080B500AF034B034A5268042178
:102170008A435A60BD4680BD0058014080B500AF1B
:10218000074B074A1269802149050A431A61044B2B
:10219000034A126903490A401A61BD4680BDC04620
:1021A00000100240FFFFFFEF80B500AF044B044A70
:1021B0001268802149000A431A60BD4680BDC046AE
:1021C0000070004080B500AF034B034A126803491A
:1021D0000A401A60BD4680BD00700040FFFEFFFF50
:1021E00080B582B000AF7860064B064A51687A68C5
:1021F000D2B2101C8022520082400A435A60BD466F
:1022000002B080BD0070004080B582B000AF786041
:10221000074B074A52687968C9B2081C80214900F7
:102220008140C9430A405A60BD4602B080BDC046E5
:102230000070004080B584B000AF78600A1CFB1CC1
:102240001A700023FB60104B1B68FB60FB680322C5
:102250009343FB60FA687B681343FB600A4BFA68A0
:102260001A600A4B094A126904218A431A61FB1C4D
:102270001B78012B01D130BF02E040BF20BF20BF3F
:10228000BD4604B080BDC0460070004000ED00E0D7
:1022900080B584B000AF78600A1CFB1C1A70002364
:1022A000FB60134B1B68FB60FB6803229343FB60DE
:1022B000FA687B681343FB600D4BFA681A600D4B9C
:1022C0000C4A126904210A431A61FB1C1B78012B7A
:1022D00001D130BF02E040BF20BF20BF054B054AFF
:1022E000126904218A431A61BD4604B080BDC0460C
:1022F0000070004000ED00E080B500AF074B074ADA
:10230000126802210A431A60054B054A126904212A
:102310000A431A6130BFBD4680BDC0460070004010
:1023200000ED00E080B582B000AF78607B68002BE4
:1023300001D1012369E07B685B7FDBB2002B03D115
:102340007B68181C00F0E0F87B6802225A777B68F3
:102350001B68CA225A627B681B6853225A627B68D8
:10236000181C00F08BFE031E08D07B681B68FF2240
:102370005A627B6804225A77012346E07B681B6817
:102380007A681268926823490A409A607B681B68E1
:102390007A68126891687A6850687A68126910439E
:1023A0007A68526902430A439A607B681B687A68BC
:1023B000D2681A617B681B687A68126811697A684A
:1023C000926812040A431A617B681B687A68126873
:1023D000D26880218A43DA607B681B687A68126859
:1023E000126C0D490A401A647B681B687A6812688F
:1023F000116C7A6892690A431A647B681B68FF2231
:102400005A627B6801225A770023181CBD4602B02D
:1024100080BDC046BFFF8FFFFFFFFBFF80B582B0CE
:1024200000AF78607B6802225A777B681B68CA22FB
:102430005A627B681B6853225A627B68181C00F042
:102440001DFE031E08D07B681B68FF225A627B6852
:1024500004225A7701234EE07B681B6800221A6031
:102460007B681B68264A5A607B681B689B687B6890
:102470001B6800229A607B681B68224A1A617B688D
:102480001B680022DA617B681B680022DA627B68C5
:102490001B680022DA637B681B6800225A647B6831
:1024A0001B680022DA607B681B6800221A647B6864
:1024B0001B689B68202213400ED17B68181C00F01B
:1024C000A7FD031E08D07B681B68FF225A627B6849
:1024D00004225A7701230EE07B681B68FF225A62B0
:1024E0007B68181C00F018F87B6800225A777B681C
:1024F00000221A770023181CBD4602B080BDC046DA
:1025000001210000FF007F0080B582B000AF78603D
:10251000BD4602B080BDC04680B582B000AF7860D5
:10252000BD4602B080BDC04690B587B000AFF86030
:10253000B9607A6000237B61FB681B7F012B01D1AE
:102540000223ADE0FB6801221A77FB6802225A776A
:102550007B68002B25D1FB681B689B6840221340D9
:1025600002D1BB6800221A72BB681B78181C00F0ED
:10257000B1FD031C1C04BB685B78181C00F0AAFDAD
:10258000031C1B021C43BB689B78181C00F0A2FDB7
:10259000031C221C1A43BB681B7A1B0413437B6178
:1025A0001FE0FB681B689B684022134007D0BB6894
:1025B0001B78181C00F0B0FD031C7B6102E0BB68B7
:1025C00000221A72BB681B781A04BB685B781B0276
:1025D0001343BA6892781A43BB681B7A1B041343EF
:1025E0007B61FB681B68CA225A62FB681B68532226
:1025F0005A62FB68181C00F041FD031E0BD0FB68FB
:102600001B68FF225A62FB6804225A77FB6800228B
:102610001A77012344E0FB681B687A6922490A4063
:102620001A60FB681B68FA68126892681F490A40C2
:102630009A60FB681B68FA6812689168BA68D0688B
:10264000BA68126902430A439A60FB681B68FA6819
:102650001268D26880218A43DA60FB681B689B6835
:102660002022134011D1FB68181C00F0D1FC031E7E
:102670000BD0FB681B68FF225A62FB6804225A7762
:10268000FB6800221A7701230AE0FB681B68FF221F
:102690005A62FB6801225A77FB6800221A770023EE
:1026A000181CBD4607B090BD7F7F7F00FFFFFBFF7A
:1026B00080B586B000AFF860B9607A6000237B61B6
:1026C000FB681B689A6ABB685A60FB681B681B68DA
:1026D000224A13407B617A69FC239B0313401B0C45
:1026E000DAB2BB681A707A69FE23DB0113401B0A59
:1026F000DAB2BB685A707B69DBB27F221340DAB270
:10270000BB689A707A698023DB0313401B0CDAB232
:10271000BB681A727B68002B1AD1BB681B78181C27
:1027200000F0FAFC031C1A1CBB681A70BB685B78CB
:10273000181C00F0F1FC031C1A1CBB685A70BB6823
:102740009B78181C00F0E8FC031C1A1CBB689A70EC
:102750000023181CBD4606B080BDC0467F7F7F00A9
:1027600090B587B000AFF860B9607A6000237B61F4
:10277000FB681B7F012B01D102239FE0FB68012234
:102780001A77FB6802225A777B68002B0ED1BB6850
:102790005B781A1C1023134008D0BB685B781022AA
:1027A0009343DBB20A33DAB2BB685A707B68002B02
:1027B0001CD1BB68DB78181C00F08CFC031C1C04CB
:1027C000BB685B78181C00F085FC031C1B021C43D3
:1027D000BB689B78181C00F07DFC031C221C1A436C
:1027E000BB681B785B0313437B611CE0BB685B78B1
:1027F000181C00F091FC031C7B61BB689B78181CC3
:1028000000F08AFC031C7B61BB68DB781A04BB68A0
:102810005B781B021343BA6892781A43BB681B7833
:102820005B0313437B61FB681B68CA225A62FB6827
:102830001B6853225A62FB68181C00F01FFC031E21
:102840000BD0FB681B68FF225A62FB6804225A7790
:10285000FB6800221A77012330E0FB681B687A6965
:1028600018490A405A60FB681B68FA681268D26807
:1028700080218A43DA60FB681B689B682022134032
:1028800011D1FB68181C00F0C3FB031E0BD0FB68C2
:102890001B68FF225A62FB6804225A77FB680022F9
:1028A0001A7701230AE0FB681B68FF225A62FB6863
:1028B00001225A77FB6800221A770023181CBD46B4
:1028C00007B090BD3FFFFF0080B586B000AFF86055
:1028D000B9607A6000237B61FB681B685B68224AF1
:1028E00013407B617A69FF231B0413401B0CDAB28F
:1028F000BB68DA707A69F8235B0113401B0ADAB20D
:10290000BB685A707B69DBB23F221340DAB2BB6806
:102910009A707A69E0231B0213405B0BDAB2BB6842
:102920001A707B68002B1AD1BB68DB78181C00F08A
:10293000F3FB031C1A1CBB68DA70BB685B78181CBD
:1029400000F0EAFB031C1A1CBB685A70BB689B783A
:10295000181C00F0E1FB031C1A1CBB689A700023D2
:10296000181CBD4606B080BD3FFFFF0090B589B082
:1029700000AFF860B9607A600023BB610023FB619F
:1029800000237B61FB681B7F012B01D10223D9E06F
:10299000FB6801221A77FB6802225A777B68002BBA
:1029A00036D1FB681B689B684022134002D1BB688C
:1029B00000221A72BB681B78181C00F08BFB031CEA
:1029C0001C04BB685B78181C00F084FB031C1B0212
:1029D0001C43BB689B78181C00F07CFB031C221C6A
:1029E0001A43BB681B7A1B041A43141CBB682022C1
:1029F0009B5C181C00F06EFB031C1B06221C1A4378
:102A0000BB68DB691A43BB685B691343FB613FE04A
:102A1000FB681B689B684022134007D0BB681B788B
:102A2000181C00F079FB031CFB6102E0BB6800226C
:102A30001A72BB68DB69002B08D1BB6820229B5C43
:102A4000181C00F069FB031CFB6107E0BB68202237
:102A50009B5C181C00F060FB031CFB61BB681B78CF
:102A60001A04BB685B781B021343BA6892781A4356
:102A7000BB681B7A1B041A43BB6820215B5C1B06E6
:102A80001A43BB68DB691A43BB685B691343FB618C
:102A9000BB685A68BB689B6913437B61FB681B6812
:102AA000CA225A62FB681B6853225A62FB681B6881
:102AB000FA681268926825490A409A60FB681B68A8
:102AC000FA681268926822490A409A60FFF7D0FAC1
:102AD000031CBB6114E0FFF7CBFA021CBB69D21ADE
:102AE000FA239B009A420BD9FB681B68FF225A62AB
:102AF000FB6803225A77FB6800221A77032321E040
:102B0000FB681B68DB6801221340E4D0FB681B688C
:102B1000FA69DA61FB681B687A695A64FB681B68AA
:102B2000FA6812689268802149000A439A60FB683B
:102B30001B68FF225A62FB6801225A77FB68002259
:102B40001A770023181CBD4609B090BDFFFEFFFF99
:102B5000FFEFFFFF90B589B000AFF860B9607A6011
:102B60000023BB610023FB6100237B61FB681B7FAB
:102B7000012B01D10223F2E0FB6801221A77FB68E6
:102B800002225A777B68002B36D1FB681B689B6852
:102B90004022134002D1BB6800221A72BB681B7826
:102BA000181C00F097FA031C1C04BB685B78181C07
:102BB00000F090FA031C1B021C43BB689B78181C96
:102BC00000F088FA031C221C1A43BB681B7A1B0402
:102BD0001A43141CBB6820229B5C181C00F07AFA74
:102BE000031C1B06221C1A43BB68DB691A43BB6823
:102BF0005B691343FB613FE0FB681B689B684022F5
:102C0000134007D0BB681B78181C00F085FA031C22
:102C1000FB6102E0BB6800221A72BB68DB69002B13
:102C200008D1BB6820229B5C181C00F075FA031CBD
:102C3000FB6107E0BB6820229B5C181C00F06CFA6B
:102C4000031CFB61BB681B781A04BB685B781B0222
:102C50001343BA6892781A43BB681B7A1B041A4361
:102C6000BB6820215B5C1B061A43BB68DB691A4307
:102C7000BB685B691343FB61BB685A68BB689B69AF
:102C800013437B61FB681B68CA225A62FB681B689E
:102C900053225A62FB681B68FA68126892683249CC
:102CA0000A409A60FB681B68FA681268D268FF21C4
:102CB0000A402E490A43DA60FFF7DAF9031CBB61C8
:102CC00014E0FFF7D5F9021CBB69D21AFA239B0066
:102CD0009A420BD9FB681B68FF225A62FB680322E9
:102CE0005A77FB6800221A77032338E0FB681B68D9
:102CF000DB6801221340E4D0FB681B68FA69DA61E3
:102D0000FB681B687A695A64FB681B68FA6812687A
:102D10009268802149000A439A60FB681B68FA6840
:102D200012689268802149010A439A60104B104A48
:102D30001268802189020A431A600D4B0C4A92687E
:102D4000802189020A439A60FB681B68FF225A624D
:102D5000FB6801225A77FB6800221A770023181CAF
:102D6000BD4609B090BDC046FFFEFFFF7FFEFFFFDE
:102D70000004014080B584B000AF78603960002362
:102D8000FB607B681B7F012B01D1022348E07B683D
:102D900001221A777B6802225A777B681B68CA2255
:102DA0005A627B681B6853225A627B681B687A6888
:102DB000126892681C490A409A607B681B687A68AE
:102DC0001268926819490A409A60FFF751F9031C8A
:102DD000FB6014E0FFF74CF9021CFB68D21AFA23DF
:102DE0009B009A420BD97B681B68FF225A627B6862
:102DF00003225A777B6800221A77032310E07B684E
:102E00001B68DB6801221340E4D07B681B68FF224B
:102E10005A627B6801225A777B6800221A77002366
:102E2000181CBD4604B080BDFFFEFFFFFFEFFFFF93
:102E300080B586B000AFF860B9607A603B6000236F
:102E40007B6100233B61BB68802252005A62FB68B1
:102E50001B68DB697B61FB681B685B6C5B045B0C5C
:102E60003B617A69FC239B0313401B0CDAB2BB68FD
:102E70001A707A69FE23DB0113401B0ADAB2BB68C1
:102E80005A707B69DBB27F221340DAB2BB689A705A
:102E90007A698023DB0313401B0CDAB2BB681A7219
:102EA000BB683A695A607A69FC239B0513401B0E84
:102EB000D9B2BB68202299547A698023DB051A4075
:102EC000BB68DA617B69194A1A40BB685A613B6882
:102ED000002B25D1BB681B78181C00F01DF9031CC2
:102EE0001A1CBB681A70BB685B78181C00F014F9D8
:102EF000031C1A1CBB685A70BB689B78181C00F036
:102F00000BF9031C1A1CBB689A70BB6820229B5CDF
:102F1000181C00F001F9031C191CBB6820229954ED
:102F20000023181CBD4606B080BDC046808080804E
:102F300080B582B000AF78607B681B68DA68802358
:102F40005B00134014D07B681B689A6880235B0188
:102F500013400DD07B68181C00F018F87B681B68C4
:102F60007A681268D268FF210A4006490A43DA608B
:102F7000054B802292025A617B6801225A77BD4636
:102F800002B080BD7FFEFFFF0004014080B582B02B
:102F900000AF7860BD4602B080BDC04680B584B049
:102FA00000AF786039600023FB60FFF761F8031C15
:102FB000FB6012E03B6801330FD03B68002B07D069
:102FC000FFF756F8021CFB68D21A3B689A4204D9F4
:102FD0007B6803225A77032314E07B681B68DA6856
:102FE00080235B001340E5D07B681B687A68126819
:102FF000D268FF210A4005490A43DA607B68012252
:103000005A770023181CBD4604B080BD7FFEFFFF29
:1030100080B584B000AF78600023FB607B681B68DC
:103020007A681268D268A0218A43DA60FFF720F834
:10303000031CFB600AE0FFF71BF8021CFB68D21AB6
:10304000FA239B009A4201D9032306E07B681B68A0
:10305000DB6820221340EED00023181CBD4604B0CC
:1030600080BDC04680B582B000AF78607B685B7F72
:10307000DBB2181CBD4602B080BDC04680B584B02E
:1030800000AF78600023FB607B681B68DB68402230
:1030900013401AD17B681B6801225242DA60FEF7A6
:1030A000E7FF031CFB600AE0FEF7E2FF021CFB687F
:1030B000D21AFA239B009A4201D9032306E07B68C7
:1030C0001B68DB6840221340EED00023181CBD466D
:1030D00004B080BD80B584B000AF021CFB1D1A7027
:1030E0000023FB6007E0FB680133FB60FB1DFA1D5A
:1030F00012780A3A1A70FB1D1B78092BF3D8FB686B
:10310000DBB21B01DAB2FB1D1B781343DBB2181CC8
:10311000BD4604B080BDC04680B584B000AF021C7F
:10312000FB1D1A700023FB60FB1D1B781B09DBB223
:103130001A1C131C9B009B185B00FB60FB1D1B787B
:103140000F221340DAB2FB68DBB2D318DBB2181CD3
:10315000BD4604B080BDC04680B500AF174B181CFB
:1031600020210022FDF7B6FA144B181C4021002242
:10317000FDF7B0FA114B181C80210022FDF7AAFAC6
:103180000E4A80235B00101C191C0022FDF7A2FAD6
:103190000A4A80239B00101C191C0022FDF79AFA92
:1031A000064B181C10210022FDF794FA034B181C43
:1031B00008210022FDF78EFABD4680BD00040048BC
:1031C00080B582B000AF78607B68092B00D9DFE161
:1031D0007B689A00EC4BD3181B689F46EB4B181C7E
:1031E00020210122FDF776FAE84B181C402101222C
:1031F000FDF770FAE54B181C80210122FDF76AFAF1
:10320000E24A80235B00101C191C0122FDF762FAC0
:10321000DE4A80239B00101C191C0122FDF75AFA7C
:10322000DA4B181C10210122FDF754FAD74B181C59
:1032300008210022FDF74EFAD9E1D44B181C2021B9
:103240000022FDF747FAD14B181C40210122FDF75F
:1032500041FACE4B181C80210122FDF73BFACB4AE4
:1032600080235B00101C191C0022FDF733FAC74AAB
:1032700080239B00101C191C0022FDF72BFAC34B66
:10328000181C10210022FDF725FAC04B181C08213C
:103290000022FDF71FFAAAE1BC4B181C20210122D5
:1032A000FDF718FAB94B181C40210122FDF712FA5C
:1032B000B64B181C80210022FDF70CFAB34A80237C
:1032C0005B00101C191C0122FDF704FAAF4A802391
:1032D0009B00101C191C0122FDF7FCF9AB4B181CBC
:1032E00010210022FDF7F6F9A84B181C0821012235
:1032F000FDF7F0F97BE1A54B181C20210122FDF719
:10330000E9F9A24B181C40210122FDF7E3F99F4B7C
:10331000181C80210122FDF7DDF99C4A80235B0007
:10332000101C191C0122FDF7D5F9984A80239B0037
:10333000101C191C0022FDF7CDF9944B181C10210C
:103340000022FDF7C7F9914B181C08210122FDF757
:10335000C1F94CE18D4B181C20210022FDF7BAF970
:103360008A4B181C40210122FDF7B4F9874B181C29
:1033700080210122FDF7AEF9844A80235B00101CF6
:10338000191C0022FDF7A6F9804A80239B00101C1F
:10339000191C0022FDF79EF97C4B181C10210122FC
:1033A000FDF798F9794B181C08210122FDF792F9D5
:1033B0001DE1764B181C20210122FDF78BF9734B80
:1033C000181C40210022FDF785F9704B181C802144
:1033D0000122FDF77FF96D4A80235B00101C191C48
:1033E0000122FDF777F9694A80239B00101C191C04
:1033F0000022FDF76FF9654B181C10210122FDF723
:1034000069F9624B181C08210122FDF763F9EEE00F
:103410005E4B181C20210122FDF75CF95B4B181C48
:1034200040210022FDF756F9584B181C802101223B
:10343000FDF750F9554A80235B00101C191C01222E
:10344000FDF748F9514A80239B00101C191C0122EA
:10345000FDF740F94D4B181C10210122FDF73AF9F8
:103460004A4B181C08210122FDF734F9BFE0474BF5
:10347000181C20210122FDF72DF9444B181C402176
:103480000122FDF727F9414B181C80210122FDF78D
:1034900021F93E4A80235B00101C191C0022FDF715
:1034A00019F93A4A80239B00101C191C0022FDF7D1
:1034B00011F9364B181C10210022FDF70BF9334B84
:1034C000181C08210022FDF705F990E02F4B181C6D
:1034D00020210122FDF7FEF82C4B181C402101226F
:1034E000FDF7F8F8294B181C80210122FDF7F2F8AE
:1034F000264A80235B00101C191C0122FDF7EAF804
:10350000224A80239B00101C191C0122FDF7E2F8BF
:103510001E4B181C10210122FDF7DCF81B4B181C58
:1035200008210122FDF7D6F861E0184B181C202174
:103530000122FDF7CFF8154B181C40210122FDF7A1
:10354000C9F8124B181C80210122FDF7C3F80F4A5D
:1035500080235B00101C191C0122FDF7BBF80B4AED
:1035600080239B00101C191C0022FDF7B3F8074BA9
:10357000181C10210122FDF7ADF8044B181C08217E
:103580000122FDF7A7F832E00039000800040048E6
:10359000184B181C20210022FDF79CF8154B181C15
:1035A00040210022FDF796F8124B181C80210022C2
:1035B000FDF790F80F4A80235B00101C191C0022B5
:1035C000FDF788F80B4A80239B00101C191C002271
:1035D000FDF780F8074B181C10210022FDF77AF840
:1035E000044B181C08210022FDF774F8C046BD46A4
:1035F00002B080BD0004004880B584B000AF7860A0
:103600000023FB6002E0FB680133FB60FA687B6823
:103610009A42F8DBBD4604B080BDC0460022430894
:103620008B4274D303098B425FD3030A8B4244D38A
:10363000030B8B4228D3030C8B420DD3FF220902CC
:1036400012BA030C8B4202D31212090265D0030B8B
:103650008B4219D300E0090AC30B8B4201D3CB0381
:10366000C01A5241830B8B4201D38B03C01A5241C3
:10367000430B8B4201D34B03C01A5241030B8B42C5
:1036800001D30B03C01A5241C30A8B4201D3CB02B0
:10369000C01A5241830A8B4201D38B02C01A524195
:1036A000430A8B4201D34B02C01A5241030A8B4298
:1036B00001D30B02C01A5241CDD2C3098B4201D3B0
:1036C000CB01C01A524183098B4201D38B01C01A2E
:1036D000524143098B4201D34B01C01A52410309A5
:1036E0008B4201D30B01C01A5241C3088B4201D354
:1036F000CB00C01A524183088B4201D38B00C01A01
:10370000524143088B4201D34B00C01A5241411A27
:1037100000D20146524110467047FFE701B5002034
:1037200000F00CF802BDC0460029F7D003B5FFF742
:1037300075FF0EBC4243891A1847C0467047C04601
:1037400070B50D4E0D4D0024AD1BAD1005D0A3007E
:10375000F35801349847A542F9D100F0ADF8084E6E
:10376000084D0024AD1BAD1005D0A300F358013463
:103770009847A542F9D170BD4804002048040020B4
:10378000480400205004002008B5034B002B02D051
:10379000024800F005F808BD00000000B13700083D
:1037A00008B5011C00220020002300F01BF808BD12
:1037B00038B5094B094CE41AA41009D0084AA518D9
:1037C000AD00ED182B68013C9847043D002CF9D161
:1037D00000F078F838BDC0465004002054040020A2
:1037E000FFFFFF3FF8B544465F4656464D469B46B1
:1037F0002F4BF0B41C68A4235B00051CE0580E1C82
:10380000904600284BD043681F2B0DDC5C1C002D1C
:1038100021D102339B0044601E5000203CBC9046E6
:103820009946A246AB46F8BD224B002B3CD0C8209F
:10383000400000E000BF002836D0A4220023520040
:10384000A15843600160A05040328350043283503D
:103850000124002DDDD09A00914681444246882102
:103860004F467A50C42252009046804442468739DF
:10387000994012688A460A4394464246614611605E
:10388000842249465F4652008F50022DC1D1021C4E
:1038900055468D32FF3211680D431560B9E7201C83
:1038A0004D30FF30E050AEE701204042B6E7C04661
:1038B0002C39000800000000F8B5C046F8BC08BC70
:1038C0009E467047F8B5C046F8BC08BC9E46704797
:1038D00002030405060708090A0B0C0D0E0F101051
:1038E0000102030405060708090A0B0C0D0E0F1050
:1038F0000000000001020304010203040607080996
:10390000DC3100083A32000898320008F63200082C
:1039100054330008B2330008103400086E34000835
:10392000CC3400082A3500084300000020000020A5
:1039300000127A00000000000000000001020304F1
:103940000607080901000000010000000000000057
:10395000000000000C03002074030020DC030020A2
:103960000000000000000000000000000000000057
:103970000000000000000000000000000000000047
:1039800000000000283900080000000000000000CE
:103990000000000000000000000000000000000027
:1039A0000000000000000000000000000000000017
:1039B0000000000000000000000000000000000007
:1039C00000000000000000000000000000000000F7
:1039D00000000000000000000000000000000000E7
:1039E00000000000000000000000000000000000D7
:1039F00000000000000000000100000000000000C6
:103A00000E33CDAB34126DE6ECDE05000B0000008A
:103A100000000000000000000000000000000000A6
:103A20000000000000000000000000000000000096
:103A30000000000000000000000000000000000086
:103A40000000000000000000000000000000000076
:103D7000000000000000000089370008E90000088A
:083D8000C10000080000000072
:0400000508000000EF
:00000001FF
